{
  "_format": "hh-sol-artifact-1",
  "contractName": "EntryPoint",
  "sourceName": "contracts/core/EntryPoint.sol",
  "abi": [
    {
      "anonymous": false,
      "inputs": [
        {
          "indexed": true,
          "internalType": "address",
          "name": "sender",
          "type": "address"
        },
        {
          "indexed": false,
          "internalType": "uint256",
          "name": "nonce",
          "type": "uint256"
        }
      ],
      "name": "UserOperationEvent",
      "type": "event"
    },
    {
      "inputs": [
        {
          "internalType": "bytes",
          "name": "_initCode",
          "type": "bytes"
        }
      ],
      "name": "getSenderAddress",
      "outputs": [
        {
          "internalType": "address",
          "name": "sender",
          "type": "address"
        }
      ],
      "stateMutability": "nonpayable",
      "type": "function"
    },
    {
      "inputs": [
        {
          "components": [
            {
              "internalType": "address",
              "name": "sender",
              "type": "address"
            },
            {
              "internalType": "uint256",
              "name": "nonce",
              "type": "uint256"
            },
            {
              "internalType": "bytes",
              "name": "initCode",
              "type": "bytes"
            },
            {
              "internalType": "bytes",
              "name": "callData",
              "type": "bytes"
            },
            {
              "internalType": "uint256",
              "name": "callGasLimit",
              "type": "uint256"
            },
            {
              "internalType": "uint256",
              "name": "verificationGasLimit",
              "type": "uint256"
            },
            {
              "internalType": "uint256",
              "name": "preVerificationGas",
              "type": "uint256"
            },
            {
              "internalType": "uint256",
              "name": "maxFeePerGas",
              "type": "uint256"
            },
            {
              "internalType": "uint256",
              "name": "maxPriorityFeePerGas",
              "type": "uint256"
            },
            {
              "internalType": "bytes",
              "name": "paymasterAndData",
              "type": "bytes"
            },
            {
              "internalType": "bytes",
              "name": "signature",
              "type": "bytes"
            }
          ],
          "internalType": "struct EntryPoint.UserOperation[]",
          "name": "ops",
          "type": "tuple[]"
        },
        {
          "internalType": "address payable",
          "name": "beneficiary",
          "type": "address"
        }
      ],
      "name": "handleOps",
      "outputs": [],
      "stateMutability": "nonpayable",
      "type": "function"
    },
    {
      "inputs": [
        {
          "components": [
            {
              "internalType": "address",
              "name": "sender",
              "type": "address"
            },
            {
              "internalType": "uint256",
              "name": "nonce",
              "type": "uint256"
            },
            {
              "internalType": "bytes",
              "name": "initCode",
              "type": "bytes"
            },
            {
              "internalType": "bytes",
              "name": "callData",
              "type": "bytes"
            },
            {
              "internalType": "uint256",
              "name": "callGasLimit",
              "type": "uint256"
            },
            {
              "internalType": "uint256",
              "name": "verificationGasLimit",
              "type": "uint256"
            },
            {
              "internalType": "uint256",
              "name": "preVerificationGas",
              "type": "uint256"
            },
            {
              "internalType": "uint256",
              "name": "maxFeePerGas",
              "type": "uint256"
            },
            {
              "internalType": "uint256",
              "name": "maxPriorityFeePerGas",
              "type": "uint256"
            },
            {
              "internalType": "bytes",
              "name": "paymasterAndData",
              "type": "bytes"
            },
            {
              "internalType": "bytes",
              "name": "signature",
              "type": "bytes"
            }
          ],
          "internalType": "struct EntryPoint.UserOperation",
          "name": "_userOp",
          "type": "tuple"
        },
        {
          "internalType": "bytes32",
          "name": "_userOpHash",
          "type": "bytes32"
        },
        {
          "internalType": "uint256",
          "name": "_missingAccountFunds",
          "type": "uint256"
        }
      ],
      "name": "validateUserOp",
      "outputs": [
        {
          "internalType": "uint256",
          "name": "validationData",
          "type": "uint256"
        }
      ],
      "stateMutability": "nonpayable",
      "type": "function"
    }
  ],
  "bytecode": "0x608060405234801561001057600080fd5b5061036f806100206000396000f3fe608060405234801561001057600080fd5b50600436106100415760003560e01c80631fad948c146100465780633a871cdd1461005b5780639b249f6914610085575b600080fd5b610059610054366004610169565b6100b3565b005b6100726100693660046101ef565b60009392505050565b6040519081526020015b60405180910390f35b61009b610093366004610243565b600092915050565b6040516001600160a01b03909116815260200161007c565b60005b8281101561014b57368484838181106100d1576100d16102b5565b90506020028101906100e391906102cb565b90506100f260208201826102ec565b6001600160a01b03167f2ab2fdfceffddfddabaeebe0a35e701c9aa28b6d5d1af7a15d0b4e76727a32b8826020013560405161013091815260200190565b60405180910390a2508061014381610310565b9150506100b6565b50505050565b6001600160a01b038116811461016657600080fd5b50565b60008060006040848603121561017e57600080fd5b833567ffffffffffffffff8082111561019657600080fd5b818601915086601f8301126101aa57600080fd5b8135818111156101b957600080fd5b8760208260051b85010111156101ce57600080fd5b602092830195509350508401356101e481610151565b809150509250925092565b60008060006060848603121561020457600080fd5b833567ffffffffffffffff81111561021b57600080fd5b8401610160818703121561022e57600080fd5b95602085013595506040909401359392505050565b6000806020838503121561025657600080fd5b823567ffffffffffffffff8082111561026e57600080fd5b818501915085601f83011261028257600080fd5b81358181111561029157600080fd5b8660208285010111156102a357600080fd5b60209290920196919550909350505050565b634e487b7160e01b600052603260045260246000fd5b6000823561015e198336030181126102e257600080fd5b9190910192915050565b6000602082840312156102fe57600080fd5b813561030981610151565b9392505050565b600060001982141561033257634e487b7160e01b600052601160045260246000fd5b506001019056fea2646970667358221220270a5f2a2450acfd1cea3081de7e59498cfaa9fbb462b27d6d42bcfa4d8921a264736f6c634300080c0033",
  "linkReferences": {},
  "deployedLinkReferences": {}
}